:020000040000FA
:10200000022F6D02287EFFFFFFFFFFFFFFFFFFFF94
:10201000FFFFFFFFFFFFFFFFFFFFFF022A0CFFFF95
:10202000FFFFFFFFFFFFFFFFFFFFFF022C59FFFF36
:10203000FFFFFFFFFFFFFFFFFFFFFFFFFFFFFFFFB0
:10204000FFFFFFFFFFFFFFFFFFFFFFFFFFFFFFFFA0
:10205000FFFFFFFFFFFFFFFFFFFFFFFFFFFFFFFF90
:10206000FFFFFFFFFFFFFFFFFFFFFFFFFFFFFFFF80
:10207000FFFFFFFFFFFFFFFFFFFFFFFFFFFFFFFF70
:10208000FFFFFF02283DFFFFFFFFFFFFFFFFFFFFF6
:10209000D36A4930313233343536373839414243E7
:1020A00044454600286E756C6C20706F696E7465CF
:1020B0007229003031323334353637383961626352
:1020C000646566003F3F3F000000807F0000803F66
:1020D000F9021550B743BA510000204100E7DB2E4A
:1020E0000000A040122FAA6046122F7D603DE968D3
:1020F0007008F618F618F618F622748067F71221A1
:1021000018090909748067F722122F7D601D122FAC
:10211000AA7005191919801A122E7B701F122EA38E
:10212000C37003E6673319191940071818182208F5
:10213000080874FFF618F618F618F622122EA36097
:1021400017123023702192F012302C701950172082
:10215000F014080808090909E7F61819E7F618192C
:10216000E7F61819E7F62212302C60E6E869701FCE
:102170000808E62480F608E436F618547FB47F0C8D
:10218000E654806007F6E418F618F622181822E9DB
:10219000C6CC08C6CD08C6CE08C6CFC0E0E8C0E0B1
:1021A000EAC0E0EBC0E009E9F809E7FA09E7FBE675
:1021B000F918E6F8C3EC98ED99EE9AEBC2E7F5F062
:1021C000EFC2E795F0500E600CEBCFFBEACEFAE9D8
:1021D000CDF9E8CCF8EAA2E7D2E7FAEB33FB13F546
:1021E000F0EEA2E7D2E7FEEF33FFC5F013A2E7302F
:1021F000E601B313C5F0C3C0E0C0F07F00C39BFB92
:10220000605E9418600F401D14601AD0E023F9D06E
:10221000E0F80222EA8AF0E9486003D2F0E4AFF085
:10222000FAF9F8803BEB30E40D89F0EA6003D2F074
:10223000E4AFF0F9CAF8EB30E30D88F0EF6002D2BA
:10224000F0AFF0E4CAC9F8EB54076014FBC3EA131B
:10225000FAE913F9E813F8EF135002D2E0FFDBEDCF
:10226000D0E0C0E030E739C3E49FFFF5F0EC98FC24
:1022700042F0ED99FD42F0EE9AFE42F0D0E0F9D046
:10228000E0F8E5F0607AE923F9EE20E742D8028031
:1022900067C3EF33FFEC33FCED33FDEE33FE80EA32
:1022A000EC28FCED39FDEE3AFED0E023F9D0E0F861
:1022B0004002801BC3EE13FEED13FDEC13FCEF1385
:1022C0005002D2E0FF08B800067F7F74FF802EEF37
:1022D0003350178CF020F00260100CBC000C0DBDC8
:1022E00000080EBE000408E860DFE933E813FFEEE3
:1022F0002313FE4F4D4C8008E95480FFE4FEFDFCA3
:10230000EE33EF33F47004FCFD7E80D0E0FBD0E0D0
:10231000FAD0E0F8D0E0CFC618CEC618CDC618CC9B
:10232000C6F922122F7D700418181822122FAA70D5
:102330000D74FFF61819F61819F61819F622E75455
:102340008066F612302C700F12302370F014F608ED
:10235000F608F608F680D1123023700CF608F6085D
:10236000768008E6447F80EC122EA6700C122E7E3A
:1023700060BFE65480F6E480BB122E7E700519190A
:102380001980A5E869700C763F18768018F618F663
:10239000E8F922E6CDC0E018ECC0E0E633CD33CD5D
:1023A000D313F6E719FCE7191933CC33C3947F40F4
:1023B0000ECD9D502408E65480F6E418F6800FF404
:1023C000043D14501408E6447FF6187680E418F6AD
:1023D00018F6D0E0FCD0E0FD22CCD313CCFD18E4FD
:1023E000C6CBC0E018E4C6CAC0E00808ED08C63392
:1023F000E613F618E433C675F003C3CA97CA09CBCF
:1024000097CB199C40047D08802EBD00030224CC8C
:1024100016B6FF050606081618C3CA33CACB33CB57
:1024200033CA27CA09CB37CB193CC37D08803E1875
:102430007D0820E75CC633C6CA33CACB33CB33DD55
:10244000F1D5F0EB30E77BCA97CA09CB974ACB1995
:102450009C406F4B7025E620E0218066187D08C304
:10246000CA97CA09CB97CB199CD3C633C6CA33CAFD
:10247000CB33CB3350C9DDE7D5F0E1D3E4C636C664
:1024800008C636C608C636C608C636C61818188026
:1024900031C3CA97CA09CB97CB199CB34097C633AF
:1024A000C6CA33CACB33CB33DD34D5F02EC6A2E057
:1024B000C640C8CA27CA09CB37194A70BECB3CB43C
:1024C00080B90808E63308E633601F181818D0E012
:1024D000FAD0E0FBD0E0FCD0E0FD22187D08CA274E
:1024E000CA09CB37CB193CD3808013F618E4B67FEA
:1024F00011F618B6FF0EF618C60470D208087680DA
:1025000080CAF618F618F680C500122F7D604F12AB
:102510002FAA6012E7548066F6122E7B70111230DB
:1025200023703B090909F4F618F618F618F622127A
:102530002EA3701512302C08080860EAE6447FF6D6
:1025400018768018E4F618F62212302C6016123035
:10255000237012E4F608F608F608E65480F6090936
:102560000918181822EAC0E0EBC0E0ECC0E0EDC0AA
:10257000E0E687F0A4FBACF008E687F0A42CFCE4CE
:1025800035F0FA1809E687F0A42C4B60027401CAF2
:1025900035F0FCE433FB09E687F0D2F7A42CCB3509
:1025A000F0FC1908E687F0A42BCC35F0FBE433FDF2
:1025B0000819E687F0D2E7A42C4ACB35F0CD3400D9
:1025C000FC09E687F0D2E7A42DCC35F0FDE433FA20
:1025D0000918E687F0D2F7A42CCD35F0CA3400FCF8
:1025E00008E687F0D2E7D2F7A42ACC35F07A7E202D
:1025F000E70B0ACB33CBCD33CDCC33CC33CB3350FD
:10260000147004ED30E00ED2F1E4CD3DCDCC3CCCE5
:102610003B5005DA05C2F1EB547FC63308E633922E
:10262000F0FBE73309E733C39A502D2B70190C0DDB
:102630004C4D70151806E608C333700D20F10AA240
:10264000F013F6E418800B4024E4F630F0027680B4
:1026500018F618F618F68024D33B14501074FFA215
:10266000F013F6187680E418F618F6800FA2F0132F
:10267000F618E63303F618ECF618EDF6D0E0FDD0C8
:10268000E0FCD0E0FBD0E0FA221226D430F0391280
:10269000271980341226D420F01430E72B74FFFC65
:1026A000FBFA747F8022E4FCFBFA7480801AB48009
:1026B00008BC00F2BB00EF800F50EBF9E4C39AFABC
:1026C000E49BFBE49CFCE499C6CC18C6CB18C6CAB4
:1026D00018C6F922E4C9C608CAC608CBC6D3330354
:1026E00008CCC63392F0C3947F402E94184019C989
:1026F000B90704CACBCC225025C309CA33CACB338D
:10270000CBCC33CC33D9F422F4600DC9CCC313CB7A
:1027100013CBCA13CAD9F6CC22E4FCFBFA2214FC70
:10272000FBFA22C3E498F8E499F91227648026C3DF
:10273000E49AFAE49BFBE920E7E9122764E498F8BD
:10274000E499F922C3E498F8E499F9122764E4982B
:10275000F8E499F9C3E49AFAE49BFB22EB20E7CF73
:10276000E920E7E0B90010BB0008E88AF084F8AA85
:10277000F022E4FBC8FA22EB70227B10C833C8C9F0
:1027800033C9335007C39AC3DBF280069A50012A3B
:10279000DBEAC833F4C8C933F4C9FA2275F008E497
:1027A000C833C8C933C933C99AC99B5004C92AC997
:1027B0003BD5F0ECFBC833F4C8E4C9FA220808089A
:1027C000EAC0E0EBC0E086F0E7A4FA180986F0E77B
:1027D000A42AFA180986F0E7A42AFA180986F0E76D
:1027E000A42AFA1986F0E7A4FBE5F02AFA1908866C
:1027F000F0E7A42BFBE5F03AFA190886F0E7A42BE2
:10280000FBE5F03AFA18180986F0E7A4C5F02BFBAF
:10281000E43AFA1908E7C5F0C6A426F6E5F03BFB52
:10282000E43AFA1886F0E7A4F6E5F00826F6E43B69
:1028300008F6E43A08F6D0E0FBD0E0FA22C0E074F3
:10284000F2122A6C9061A3E0F8A2AFE433FED2AF9B
:10285000759B00E5E9585440601A900399E0F8A38D
:10286000E0F9E8496008E0F58388821232EC75E10E
:10287000ED53E9BFEEA2E092AF7F01022ACBC0E0A8
:10288000C0D0E8C0E0E9C0E0C082C083A2AFE433BA
:10289000F8D2AF9061A5E0F9E5BF59540460067520
:1028A000E1ED75BFFBE8A2E092AFD083D082D0E02B
:1028B000F9D0E0F8D0D0D0E032080808E630E711CF
:1028C000122EB71228D1080808C64480C618181856
:1028D00022181818E9799EC608CAC608CBC608CCC3
:1028E000C6C370207996CACBCC7019798ECBCC70C8
:1028F000137986CC700EF9802ACA33CACB33CBCC7D
:1029000033CC331930E7F2CCCBCA3350147004EA1D
:1029100030E00DE4CA3ACACB3BCBCC3CCC500209E8
:10292000C3E913C6CC182313C6CB18C6CA18C6F9F8
:1029300022E4CFC0E0E4CEC0E0E4CDC0E0E4CCC00F
:10294000E075F020E626F608E633F608E633F608EA
:10295000E633F6181818EC33FCED33FDEE33FEEFDA
:1029600033FFC3EC9709ED9709EE9709EF97191913
:1029700019400FFFEC97FC09ED97FD09EE97FE1942
:102980001906D5F0BFECF709EDF709EEF709EFF7F7
:10299000191919D0E0FCD0E0FDD0E0FED0E0FF2214
:1029A0002510C582C0E0E51134FFC583C0E0E51005
:1029B000C3958224F810AF088583118582108008A2
:1029C000858311858210D2AFCEF0A3E520F0A378E5
:1029D00008E608F0A3DEFAEFF0A3E58124FAF8E6B2
:1029E00008F0A3E608F0A3E608F0A30808E608F05C
:1029F000A3E608F0A315811581D0E0FED0E0F8151C
:102A00008115811581E8C0E0EEC0E022C0E074F1DC
:102A1000122A6CC28FE5F9F89003C7E0C3942050E6
:102A2000289003C5E0F50874012508F074A5250871
:102A3000F582E43403F583E8F09003C5E064207088
:102A400002E4F09003C7E004F0A3E0F8A3E0F9E8A3
:102A50004960149003C7E0C39411400B7A007B00D7
:102A6000888289831232EC7F02022ACBC0D02510E3
:102A7000C582C0E0E51134FFC583C0E0E510C39511
:102A80008224F310AF088583118582108008858326
:102A900011858210D2AFC8F0A3E9F0A3EAF0A3EB4E
:102AA000F0A37908E709F0A3D8FAECF0A3EDF0A3BE
:102AB000EEF0A3EFF0A3D0E0F0A3D0E0F0A3D0E0DD
:102AC000F0A3E520F0A3E5F0F0A3228511838510A3
:102AD00082E0C0E0A3E0F9A3E0FAA3E0FBA378085A
:102AE000E0F608A3DFFAE0FCA3E0FDA3E0FEA3E02C
:102AF000FFA3E0C0E0A3E0C0E0A3E0F5D0A3E0F5D1
:102B000020A3E0A3F5F010AF088583118582108023
:102B100008858311858210D2AFD082D083D0E0F8AF
:102B2000D0E03212300EB90003022B62E4900301B0
:102B300078C679148002F0A3D8FCD9FA7AC67B163D
:102B4000902092785379018015E493A3AD82AE83EF
:102B50008A828B83F0A3AA82AB838D828E83D8E98D
:102B6000D9E775827D7583A57401122D737582E78F
:102B70007583327400122D73122F7D601C122FAAE0
:102B8000601712302C70071230237001D322C0D08E
:102B90001230237006D0D0B322C32233D0D05014C9
:102BA00030E0F6C3E7960809E7960809E7960809B2
:102BB000E796B32220E0D5E6970809E6970809E6EC
:102BC000970809E697B322122F7D601B122FAA6087
:102BD0001612302C7007123023600CB322C0D012B2
:102BE00030237005D0D022C32233D0D0501330E030
:102BF000EBC3E7960809E7960809E7960809E79600
:102C00002220E0E4E6970809E6970809E697080914
:102C1000E69722851183851082E0A3FEE0A3F520CC
:102C20007808E0A3F608DFFAE0A3FFE0A3C0E0E045
:102C3000A3C0E0E0A3C0E0E0A3C0E0E0A3C0E010D8
:102C4000AF088582108583118008858210858311E5
:102C5000D2AFD083D082022D79C0E074F2122A6CF8
:102C6000A2AFE433FEC2AFA2C7501CC2C7C2AD9030
:102C7000039FE0F8A3E0F9E849600C7A007B00E0EC
:102C8000F58388821232ECEEA2E092AF7F01022A35
:102C9000CB7404800474028000CCC0E0EDC0E0E599
:102CA00010C39CCCAD1150011D10AF068C108D11BE
:102CB00080068C108D11D2AF122D14D0E0FDD0E023
:102CC000FC22122F7D6025122FAA602012302C705A
:102CD00003023023080808E76670101819E76670C9
:102CE0000A1819E76670041819E76622F422C0086A
:102CF000C3E096F50808A3E096420808A3E09642D0
:102D00000808A3E0964208A2D265D033E508700116
:102D1000D3D00822CAC0E0E0A3C582CCC582C58357
:102D2000CDC583F0A3C582CCC582C583CDC583DA6A
:102D3000E6D0E0CA22C008C3E096F50808A3E096F2
:102D4000420808A3E096420808A3E09645087001EF
:102D5000D3D008227009080808226016181818C66F
:102D6000C333C608C633C608C633C608C633C6D57D
:102D7000E0EA22C09FF59FE473D09F22D083D082E7
:102D8000C09FE493C0E0740193C0E0740293F59F88
:102D9000222510F58210AF08F510400C151180089F
:102DA000F51040021511D2AF8511832200C0D02545
:102DB0001010AF08F510500C05118008F5105002E6
:102DC0000511D2AFD0D0226016080808C6C313C6BA
:102DD00018C613C618C613C618C613C6D5E0EA220D
:102DE0002510F8E43511F9222510FAE43511FB22FB
:102DF0002510FCE43511FD22C3E0C696F608A3E0D9
:102E0000C696F608A3E0C696F608A3E0C696F62294
:102E100074048006740280027401C0E0F404122D70
:102E200091D0E0122FB922251010AF08F510400CF8
:102E300015118008F51040021511D2AF22E7667017
:102E4000100809E766700A0809E76670040809E7D0
:102E50006622E066701008A3E066700A08A3E066C8
:102E6000700408A3E06622C3E096F008A3E096F0A1
:102E700008A3E096F008A3E096F022181818E608D8
:102E800046087009E626087005E633F4220822C3D6
:102E9000E697F60809E697F60809E697F60809E6C0
:102EA00097F622191919E70947097009E7270970E8
:102EB00005E733F4220922181818E4C396F608E44B
:102EC00096F608E496F608E496F622E026F608A3BD
:102ED000E036F608A3E036F608A3E036F622E62749
:102EE000F60809E637F60809E637F60809E637F680
:102EF00022E056F608A3E056F608A3E056F608A32B
:102F0000E056F622E647F60809E647F60809E647DE
:102F1000F60809E647F622700422600D18C6C3338E
:102F2000C608C633C6D5E0F41822E026F008A3E0B0
:102F300036F008A3E036F008A3E036F022C3E096AE
:102F400008A3E09608A3E09608A3E09622600D0887
:102F5000C6A2E713C618C613C6D5E0F322C3E79688
:102F60000809E7960809E7960809E7962275D00050
:102F70007581BF75100175110300022B23E6084609
:102F800008C3134608336002E633F422E0F608A3D0
:102F9000E0F608A3E0F608A3E0F622E6F008A3E6D0
:102FA000F008A3E6F008A3E6F022E7094709C313F7
:102FB0004709336002E733F422CAC0E0E6F0A30811
:102FC000DAFAD0E0FA22EAF0A3EBF0A3ECF0A3EDFA
:102FD000F022E0FAA3E0FBA3E0FCA3E0FD22E8F08E
:102FE000A3E9F0A3EAF0A3EBF022E0F8A3E0F9A351
:102FF000E0FAA3E0FB22E0FCA3E0FDA3E0FEA3E0F7
:10300000FF22ECF0A3EDF0A3EEF0A3EFF022E5C772
:1030100054F84401F5C77901222510F582E43511F1
:10302000F58322E72719471947194722E62618464C
:103030001846184622122D7C76A201122D7C8BA2F6
:1030400001122D7C808301122D7C698401122D7C5C
:10305000BD8401122D7C748501122D7C0B8601121A
:103060002D7C1A8601122D7CE88701122D7C728836
:1030700001122D7CF08B01122D7CDB8F01122D7C37
:10308000079201122D7C123300122D7C1B3300128B
:103090002D7C243300122D7C2D3300122D7C2A34FC
:1030A00000122D7C413400122D7C4A3400122D7CFC
:1030B000795000122D7C7E5000122D7CFE500012A3
:1030C0002D7C345200122D7C015300122D7CC354F0
:1030D00000122D7C6E5500122D7C459701122D7C1F
:1030E000855700122D7C1B5900122D7C926900120D
:1030F0002D7C61A201122D7C476B00122D7C797012
:1031000000122D7CC17000122D7C2B7100122D7CC1
:10311000157200122D7C687200122D7CF38B011247
:103120002D7C388C01122D7C788C01122D7C9D8C8D
:1031300001122D7CA98C01122D7C488D01122D7C51
:10314000A68D01122D7C7AA101122D7CF57F001233
:103150002D7C2F5900122D7C3F5E00122D7C6F7F3D
:1031600000122D7C0BA501122D7C51A501122D7C86
:1031700075A401122D7C9FA401122D7CA6A501121D
:103180002D7CCEA501122D7C3C9701122D7CE6965C
:1031900001122D7CCE9601122D7C9F9601122D7C62
:1031A0006C9601122D7C5B9601122D7C52960112B9
:1031B0002D7C3B9601122D7C096A00122D7CD5A135
:1031C00001122D7C359601122D7C7A9501122D7CF1
:1031D00043A101122D7C429C01122D7C2EA30112D1
:1031E0002D7C1EA301122D7CFCA501122D7CECA5CB
:1031F00001122D7CAD9F01122D7CFA9E01122D7CB7
:10320000519E01122D7CC17F00122D7CD39A011298
:103210002D7C849A01122D7CA39901122D7C829918
:1032200001122D7C3FA401122D7CDAA301122D7C0A
:1032300012A601122D7C01A601122D7CB99C01124F
:103240002D7C519901122D7CE49801122D7CEB9B71
:1032500001122D7CCE9B01122D7C209B01122D7C16
:1032600030A101122D7C66A001122D7CD79F011286
:103270002D7CD09F01122D7C989701122D7C7D977B
:1032800001122D7C619801122D7CA79701122D7CD3
:10329000589501122D7C099401122D7C2593011261
:1032A0002D7CD49201122D7C947900122D7CE88D16
:1032B00001122D7C027900122D7C5F9701122D7C6A
:1032C0004A7500122D7C247300122D7C667F00123B
:1032D0002D7CD67C00122D7C887C00122D7C727C8B
:1032E00000122D7C7B550000000080FBE4733B0640
:1032F0003B073B08D8083B09D8093B0AD80A3B0BD7
:10330000D80BD80C0000AB32A730F530CF324931A2
:103310004730C082C0837A040250ADC082C0837A35
:10332000050250ADC082C0837A070250AD74F61218
:1033300029A074FF122E271231C775080F750900D6
:103340007808122E147C007D007A787B0412316795
:103350007402122DAC908359122C917C017D007A5D
:10336000837B041231FD7404122DAC900483E0F9C8
:103370001231A390835D122C917C017D00740412A4
:103380002DE81231FD7404122DAC85108285118355
:10339000E0C3940540037404F0E0F912319D7AE330
:1033A0007B3012327B123185900491E4F0A3F090CF
:1033B0000493F0A3F0900495F01231C1E990048DCC
:1033C000F090048EE4F090048FF012311FE9900425
:1033D00090F0900496E4F0A3F012311FE990049865
:1033E000F0900489E4F0A3F0900487F0A3F0900437
:1033F0008BF0A3F07A05FB1232999004871250C625
:103400007C057D00790012328D124F9B8882898362
:103410001250C090048712549C1250C07A007B0056
:103420007401122DAC7F02022C13C082C083900461
:103430008EE0600AE4F07A01FB7901123143025018
:10344000B4C082C0837A010250AD74F01229A07416
:10345000E9122E2774016A4B600302373590048EFF
:10346000E06003024DE012326985108285118312FB
:103470002FC6750CFF750DFF750EFF750FFF740AD3
:10348000123019E4F0A3F09004911250D58009791C
:1034900000EEFAEFFB1232EC90049112522E700300
:1034A000024DE0124F0760030235B3124FF3A3A39E
:1034B000A3A312548D7404123019124E1D12301928
:1034C000124F576008740368600302356B90836184
:1034D0007808122F8C7404123019124FED122E52EC
:1034E000700302356B900487124E8C806174061253
:1034F00030191250C67404123019124FED122F8C6D
:103500007406123019124FED122E52703C740612CE
:103510003019124EEF703212303B7406123019120D
:10352000522E6014740612301912577412329374AA
:1035300006123019E4F0A3F07406123019124FB6D7
:10354000122FD212310D124E8374081230191257F5
:10355000748A828B8312548D74081230191250C0F1
:10356000124F9BEA687002EB6970828E828F83A390
:10357000A3A3A3A3A3124ED1600302348F8E828F24
:1035800083A3A3A3A3A3A3A3A3A3A3124F4F601535
:103590001232938E828F83A3A3A3A3A3A3A3A3A377
:1035A000A3E4F0A3F0EEFAEFFB1232937E007F006B
:1035B0000234988E828F83A3A3122FEA740C1230E8
:1035C00019122FDE908349C082851082851183787D
:1035D00008122F8C740C1230197808122DF875838C
:1035E00083D0827808122D35500302368B740A126C
:1035F000301912522E60278E828F8312548D740AD6
:10360000123019125217F5838A821250C090049119
:1036100012521C1250C0900491EEF0A3EFF09004EF
:1036200091124EB312548D74041230191250C012FC
:103630004F0714F0900491124EEFF97404123019F0
:103640001257741230DD8B09EA450960030236E532
:103650007404123019124E8CE05420607F90048E56
:103660007401F07404123019124EBF90048FF09060
:103670008365122C917C9B7D307A02900490E0F956
:103680001231317404122DAC023725740C1230192A
:103690007808122F8C8510828511837808122DF8F6
:1036A000780C7908122F5D500C85080C85090D8562
:1036B0000A0E850B0F740A123019EEF0A3EF1251A7
:1036C000FC1250D5EE4F60030234A3780C122E107A
:1036D0007CA17D307A02900498024D6812500960F6
:1036E000277901801A851082851183122FEA9004B0
:1036F00091124E6CA3122FDE125009600B7900EE6E
:10370000FAEFFB1232EC801D124F41600D12329322
:10371000850882850983E4F0A3F0EE4F6007EEFA96
:10372000EFFB12329390049112522E7003024DE07F
:103730007A01024B5474026A4B600302480690837C
:1037400055122C917C047D00EC122DE81231FD7491
:1037500004122DAC8510828511837808122F8C12EB
:10376000522470030247F874121230191250C0909C
:103770000493124FDF9004931250C0900495E0140C
:10378000F07414123019EEF0A2E092AF74121230FD
:1037900019124E9A7412123019124E6574151230A5
:1037A000191250C07415123019124FDF74081230FC
:1037B00019124E251230191250DB125774EAF89084
:1037C0000483E06860030247BD7408123019E024E6
:1037D00003124E5F123019124E1D123019124FDFB4
:1037E000900481E0687003A3E069600D74FF687065
:1037F0000374FF6960030247BD7408123019124F49
:10380000B6780C122F8C908361780C122E52600CBB
:10381000780C7908122E3D60030247BD74081230FF
:1038200019124E587410123019124E151230191206
:1038300050DB780C122F8C908361780C122E527012
:10384000030247BD780C7908122E3D70030247BD74
:10385000EB54076402706D74121230191254A8E010
:10386000640D60030247BD90048EE070030247BD03
:103870007408123019124EBFF890048FE06860038C
:103880000247BD90048EE4F0124FF3124ED1600B4C
:103890007901EEFAEFFB1232EC801D124F41600D00
:1038A000123293850882850983E4F0A3F0EE4F601D
:1038B00007EEFAEFFB1232937A017B0079011231A5
:1038C000430247BDEB5420700302395A7A0D7B0046
:1038D0001232998A0C8B0DAE0CAF0DEE4F700302B5
:1038E00047BD7C0D7D00790012328D8E828F83E47E
:1038F000F0A3124E0F8E828F83F0A37442F07408EF
:10390000123019124EBF8E828F83A3A3F07404125B
:103910003019124FDF8E828F83A3A3A3124E15128C
:1039200030191250DB122FEA8E828F83A3A3A3A338
:10393000A3122FDE8E828F83A3A3A3A3A3A3A3A38B
:10394000A37808122F9B790DEEFAEFFB1230DDEE13
:103950004F6007EEFAEFFB1232937408123019121F
:103960004F57701F90049612522E70030247EA744C
:1039700012123019125774900497124E541232ECEE
:103980000247EA74036860030247BD7408123019E5
:10399000E0240DFEA3E03400FF8E828F83E0A3AE0F
:1039A00082AF8314601F147003023C04147003027E
:1039B0003CE22482602B147003023C361470030234
:1039C0003E710247BD900478E0640460030247BD85
:1039D00074101230191250DB122FD21230C5024768
:1039E000BD900478E0640160030247BD7A147B0057
:1039F00012329974061230191250C6740612301918
:103A000012522E70030247BD7C147D0079007406AB
:103A1000123019E0FA12328D8E828F83E0C0E0748A
:103A200006123019124E95A3D0E01251FCA30EAF2E
:103A3000837406123019E02405124E5F12301912F9
:103A40004E151230191250DB122FEA74041230197D
:103A5000124E71122FDE7508047509007808122EB7
:103A600014EEFCEFFD7402122DE8123161740212A3
:103A70002DACEE2404FE50010F8510828511837851
:103A800008122F8C74187808122D54851082851115
:103A900083780C122F8C7408780C122D5490836943
:103AA000780C122EF17808790C122F04851082857B
:103AB0001183780C122F8C7408780C122DC7908308
:103AC0006D780C122EF17808790C122F0485108273
:103AD000851183780C122F8C7418780C122DC778EE
:103AE00008790C122F047406123019124EA27808AD
:103AF000122F9B7508027509007808122E14EEFC2F
:103B0000EFFD740C122DE81231617402122DACEE2F
:103B10002402FE50010F740A123019E0FBA3E0F8F2
:103B2000EBF97406123019125217CA240DF582E40B
:103B30003AF583124E251230191250EFC0E0740688
:103B4000123019124E4B240FF582E438F583D0E081
:103B50001251FCE0C0E07406123019124E4B2410D2
:103B6000F582E438F583D0E01251FCA3E0C0E074A4
:103B700006123019124E4B2411F582E438F583D029
:103B8000E0F07412123019124EE2C0E074061230E6
:103B900019124E4B2412F582E438F583D0E0F0126E
:103BA0004E3E8C828D83E0FEA3E08003EAFEEBFFB5
:103BB0008E828F83125774EC6E7002ED6F603074DA
:103BC00004123019124FE7122F8C8E828F83A3A319
:103BD000A3A3A37808122E5270D2EEFAEFFB123094
:103BE0003BEE4F6007EEFAEFFB123293124FCC120E
:103BF0004E3E7406123019125774123035124F6C43
:103C000004023CDE900478E0640460030247BD7463
:103C100008123019124ED5F5087808122E187411B2
:103C20001230191250DB122FD279821230CB74016C
:103C3000122DAC0247BD900478E064026003024795
:103C4000BD7408123019124ED5F8900489E0F9A31A
:103C5000E0C9240AF582E439F583E068600302478D
:103C6000BD124F6C70030247BD124F27E8FEE912E8
:103C7000521212577A900489124E58880889098086
:103C800006ECFAED12577AEAF8EBF9EE687002EFFB
:103C90006970030247BD850882850983E070E2747C
:103CA00010123019124FE7122F8C8A828B83A3A334
:103CB000A3A3A37808122E5260030247BDEA24137F
:103CC000F582E43BF583E004F07412123019124ED1
:103CD000E2C0E0EA2412F582E43BF583D0E0F00292
:103CE00047BD7408123019E0240E124F31740612C9
:103CF00030191250C0900478E0640460030247BD9C
:103D00007406123019124FB6122FEA8510828511EF
:103D100083122FDE908355122C917C047D00741049
:103D2000122DE81231FD7404122DAC740C123019EE
:103D3000C082C0838510828511837808122F8C740D
:103D4000187808122D54851082851183780C122F53
:103D50008C7408780C122D54908369780C122EF113
:103D60007808790C122F04851082851183780C1243
:103D70002F8C7408780C122DC790836D780C122E3E
:103D8000F17808790C122F04851082851183780C44
:103D9000122F8C7418780C122DC77808790C122FFA
:103DA00004D083D0827808122E526040900487E0BD
:103DB0002401FEA3E034001252128003ECFAED124B
:103DC000577AEAF8EBF9EE687002EF697003024780
:103DD000BD7410123019124FE7122F8C8A828B8318
:103DE000A3A3A3A3A37808122E5270D090047978CD
:103DF00008122F8C7A177B001232998A0C8B0DAE29
:103E00000CAF0DEE4F70030247BD7C177D007900AB
:103E100012328D125046600678FF79FF80031254EB
:103E20008A124E2D122F9B908355122C917C047D6B
:103E300000EC122DE81231FD7404122DAC851082B5
:103E4000851183122FEA8E828F83A3A3A3A3A3A33A
:103E5000A3A3A3122FDE124E00122E1474081230E8
:103E600019124FD21231617402122DAC791702452A
:103E7000EF7408123019E0240E124E5F123019123E
:103E80004E1D123019E02402124F31740A123019FB
:103E90001250C0740A1230191250DB122FEA85102A
:103EA00082851183122FDE908355122C917C047D24
:103EB000007410122DE81231FD7404122DAC740C34
:103EC000123019C082C08385108285118378081250
:103ED0002F8C74187808122D5485108285118378E0
:103EE0000C122F8C7408780C122D54908369780C66
:103EF000122EF17808790C122F0485108285118317
:103F0000780C122F8C7408780C122DC790836D7862
:103F10000C122EF17808790C122F0485108285116D
:103F200083780C122F8C7418780C122DC7780879AE
:103F30000C122F04D083D0827808122E5260030214
:103F4000411C900478E0640360030247BD124F27D0
:103F500074061230191250C07406123019124FA58F
:103F60007404123019124E7A123019124E25123082
:103F7000191250DB122FEA740C123019122FDE8046
:103F80000BECFEEDFF8E828F8312577F740612308A
:103F9000191250F87002EF6970030247BD740C12D9
:103FA0003019122FEA851082851183122FDE8510B9
:103FB000828511837808122F8C74187808122D547A
:103FC000851082851183780C122F8C7408780C125E
:103FD0002D54908369780C122EF17808790C122FE9
:103FE00004851082851183780C122F8C7408780C4C
:103FF000122DC790836D780C122EF17808790C126F
:104000002F04851082851183780C122F8C741878F8
:104010000C122DC77808790C122F048E828F83A37F
:10402000A3A3A3A37808122E526003023F81741049
:10403000123019124FE7122F8C8E828F83A3A3A305
:10404000A3A37808122E526003023F817404123039
:10405000191250EF60030247BD1250011231379020
:1040600004787404125768122FEA900479122FDE34
:104070008E828F83A3A3A3A3A3A3A3A3A3122FEA38
:1040800090047D122FDE12547C12548D9004811204
:1040900050C0124DEE900483F0EE2410124DF10446
:1040A000900484F0EE2412124DF1900485F0EE2479
:1040B00013124DF1900486124E0FF91231A3EEFA4D
:1040C000EFFB12303BEE4F6007EEFAEFFB1232933C
:1040D0007A087B00790112314390048B12522E60D2
:1040E0000F7900124E541232EC90048BE4F0A3F0DE
:1040F0009004797808122F8C7808122E10AA08AB39
:1041000009AC0AAD0B1231077404122DAC9004797E
:10411000122C9190047D122FD20247B574041230F4
:1041200019124E7A123019124E251230191250DB24
:10413000122FEA851082851183122FDE908355128B
:104140002C917C047D007410122DE81231FD740452
:10415000122DAC740C123019C082C0838510828578
:1041600011837808122F8C74187808122D5485103A
:1041700082851183780C122F8C7408780C122D54C0
:10418000908369780C122EF17808790C122F04852F
:104190001082851183780C122F8C7408780C122DE4
:1041A000C790836D780C122EF17808790C122F04C9
:1041B000851082851183780C122F8C7418780C125C
:1041C0002DC77808790C122F04D083D0827808127A
:1041D0002E526003024607740A123019124FE7127A
:1041E0002F8C8510828511837808122F9B85108271
:1041F0008511837808122F9B85108285118378089A
:10420000122F8C74187808122D5485108285118312
:10421000780C122F8C7408780C122D5490836978C6
:104220000C122EF17808790C122F0485108285115A
:1042300083780C122F8C7408780C122DC790836D24
:10424000780C122EF17808790C122F0485108285D3
:104250001183780C122F8C7418780C122DC77808E3
:10426000790C122F047808122E10AA08AB09AC0A98
:10427000AD0B1231077404122DAC124F9B74061251
:1042800030191250C07406123019124FA5740A1258
:1042900030191250DB122FEA851082851183122FFC
:1042A000DE800BECFEEDFF8E828F8312577F74064B
:1042B0001230191250F87002EF69700302436185E1
:1042C0001082851183122FEA740C123019122FDE1E
:1042D000740C1230197808122F8C74187808122D6B
:1042E00054740C123019780C122F8C7408780C123C
:1042F0002D54908369780C122EF17808790C122FC6
:1043000004740C123019780C122F8C7408780C126B
:104310002DC790836D780C122EF17808790C122F2E
:1043200004740C123019780C122F8C7418780C123B
:104330002DC77808790C122F048E828F83A3A3A334
:10434000A3A37808122E5260030242A3EEFAEFFBF9
:1043500012303BEE4F6007EEFAEFFB123293124E33
:104360008374041230191250EF60030244EF7A0A8A
:104370007B001232998A088B09AE08AF09EE4F70A4
:10438000030244EF8E828F83A3A3A3A3A3A3A3A3BB
:10439000A37403F004123019124E8CE08E828F83C6
:1043A000A3A3A3A3F0740A1230191250DB122FEA50
:1043B000851082851183122FDE8510828511837806
:1043C00008122F8C74187808122D548510828511CC
:1043D00083780C122F8C7408780C122D54908369FA
:1043E000780C122EF17808790C122F048510828532
:1043F0001183780C122F8C7408780C122DC79083BF
:104400006D780C122EF17808790C122F0485108229
:10441000851183780C122F8C7418780C122DC778A4
:1044200008790C122F048E828F83A3A3A3A3A378F1
:1044300008122F9B900487E02401FCA3E03400FDC8
:10444000EEFAEFFB1230351250EC04F0740A123021
:1044500019124FE7122F8C8510828511837808126C
:104460002F9B8510828511837808122F9B851082DF
:104470008511837808122F8C74187808122D5485B2
:104480001082851183780C122F8C7408780C122DF1
:1044900054908369780C122EF17808790C122F044D
:1044A000851082851183780C122F8C7408780C1279
:1044B0002DC790836D780C122EF17808790C122F8D
:1044C00004851082851183780C122F8C7418780C57
:1044D000122DC77808790C122F047808122E10AA12
:1044E00008AB09AC0AAD0B1231077404122DAC7481
:1044F0000A1230191250DB122FEA851082851183BF
:10450000122FDE7A187B001232998A088B09AE08C6
:10451000AF09EE4F70030247BD7C187D0079001291
:10452000328D1252C58510828511837808122F8C26
:1045300074187808122D54851082851183780C1216
:104540002F8C7408780C122D54908369780C122EDD
:10455000F17808790C122F04851082851183780C6C
:10456000122F8C7408780C122DC790836D780C1262
:104570002EF17808790C122F04851082851183782A
:104580000C122F8C7418780C122DC77808790C1225
:104590002F048E828F83A3A3A3A3A37808122F9B3B
:1045A000908355122C917C047D00EC122DE8123181
:1045B000FD7404122DAC851082851183122FEA8EB2
:1045C000828F83A3A3A3A3A3A3A3A3A3122FDE126B
:1045D0004DF975080A7509007808122E1474061230
:1045E0003019124FD21231617402122DAC7918EECB
:1045F000FAEFFB1230DDEE4F70030247BDEEFAEF2B
:10460000FB1232930247BD74081230191250DB12AC
:104610002FEA851082851183122FDE851082851185
:10462000837808122F8C74187808122D5485108204
:10463000851183780C122F8C7408780C122D5490ED
:104640008369780C122EF17808790C122F048510EA
:1046500082851183780C122F8C7408780C122DC768
:1046600090836D780C122EF17808790C122F048546
:104670001082851183780C122F8C7418780C122DEF
:10468000C77808790C122F04AA08AB09AC0AAD0B45
:104690001231018A088B098C0A8D0B90836178088E
:1046A000122E5270030247BD7A187B001232998A8B
:1046B0000C8B0DAE0CAF0DEE4F60707C187D007949
:1046C0000012328D1254B4122F9B908355122C91EC
:1046D0007C047D00EC122DE81231FD7404122DAC27
:1046E000851082851183122FEA8E828F83A3A3A364
:1046F000A3A3A3A3A3A3122FDE124DF9750C0A7571
:104700000D00780C122E147406123019124FD212AA
:1047100031617402122DAC7918EEFAEFFB1230DD24
:10472000EE4F6007EEFAEFFB123293740A12301963
:104730001250DB122FEA851082851183122FDE784A
:1047400008122E1074041230197808122F8C741865
:104750007808122D547404123019780C122F8C74AE
:1047600008780C122D54908369780C122EF1780879
:10477000790C122F047404123019780C122F8C74D7
:1047800008780C122DC790836D780C122EF17808E2
:10479000790C122F047404123019780C122F8C74B7
:1047A00018780C122DC77808790C122F04AA08ABC0
:1047B00009AC0AAD0B1231077404122DAC7415123A
:1047C00030191250DB124F4F600B123293741512D6
:1047D0003019124E9A741212301912522E600B7444
:1047E0001212301912577412329312522460097A3D
:1047F000027B0079011231437414123019EEF0A2D9
:10480000E092AF024DE074036A4B60030248AD7A58
:104810000B7B001232999004891250C67C0B7D00EC
:10482000790012328D900483E0C0E0900489125028
:10483000DBD0E0124E0FFA240FF8E43400F9E894CC
:104840001BE99400C365D033400474FF8002740FE9
:104850002AC0E0900489124E8CD0E0F0124F839071
:104860000489124E95E4F0124F27888289831250F2
:10487000C0900489125217CA2406F582E43AF583DF
:104880001250C012311FE9FA900489124E65EA886D
:10489000828983F09004787401F0908365122C91E2
:1048A0007C837D307A0288828983024D6874046A31
:1048B0004B6003024936900478E064016003024DC6
:1048C000E0125001123137900489E02402124F386F
:1048D000FB900483E0FA900489124E6CE06A702722
:1048E00074036B70229004787402F088828983E4E8
:1048F000F0900489124EA2E4F0900489124EB3E4C1
:10490000F07A05FB024B5674036B7017888289831B
:10491000E4124E0F04F0C3941B4003740BF0E0F953
:104920001231A31230BF124EC8908365122C917CB5
:10493000837D30024D6374056A4B6003024B0D7535
:104940000A00125001123137124F6CF50C7003023D
:104950004B52900489E0240A124F31E8FCE9FD8CA7
:10496000828D83E0F50B900489E0240918124F3200
:10497000E8FAE9FB8A828B83E0F8E50C24FFF50C6A
:10498000E434FFF50DE50C68450D6003024A287418
:1049900064650B6003024A28750B008067E50824F4
:1049A00013F582E43509F583E0F8EE2413124DF196
:1049B000F9C398401BE869702DEE2410124DF1F8F0
:1049C000E5082410F582E43509F583E0C398501614
:1049D000EEFAEFFB12303BAC08AD09EEFAEFFB123A
:1049E00030EF8E088F09124F17050A850A0C124FF7
:1049F00078E8C3950EF8E99400F9C3E50C124DE58B
:104A0000409B050B850B8285820E124F78C3E50E05
:104A1000124DE55005750A0080D1124F839004783D
:104A20007403F07A07024B547464650B7009E00458
:104A3000F08C828D83E4F0900489E02404124F38D6
:104A4000FEA3E0FF124F1B8A828B83E0FA800505EC
:104A50000A124F17E86E7002E96F7003024DE0EA28
:104A6000650A70EB124DEEF9900483E0696005E988
:104A7000F01231A3900489E0240A124F3804F0F5B3
:104A80000E8E828F83A3A3A3A3A37808122F8C7A00
:104A90000F7B001232998A0C8B0DAE0CAF0DEE4FCE
:104AA000605E7C0F7D00790012328D1254B4122F9B
:104AB0009B908355122C917C047D00EC122DE81202
:104AC00031FD7404122DAC851082851183122FEAFA
:104AD0008E828F83A3A3A3A3A3A3A3A3A3122FDEDA
:104AE00012547C7402F0125564E50EF0790FEEFA60
:104AF000EFFB1230DDEE4F6007EEFAEFFB12329360
:104B0000908371122C917C897D30024D6374076A09
:104B10004B6003024D741250011231379004891218
:104B20004EBF64037010124F62FAA3E0FB12303BD9
:104B3000124FCC124F83124F6C702390048B125281
:104B40002E600F7901124E541232EC90048BE4F077
:104B5000A3F07A087B007901123143024DE0124F35
:104B600062F8A3E0F974061230191250C07A097B7A
:104B70000012329974041230191250C674041230A3
:104B80001912522E7003024D567404123019A312DA
:104B90004E547402F0908355122C917C047D00ECED
:104BA000122DE81231FD7404122DAC85108285118E
:104BB000837808122F8C74187808122D548510826F
:104BC000851183780C122F8C7408780C122D549058
:104BD0008369780C122EF17808790C122F04851055
:104BE00082851183780C122F8C7408780C122DC7D3
:104BF00090836D780C122EF17808790C122F0485B1
:104C00001082851183780C122F8C7418780C122D59
:104C1000C77808790C122F047404123019125496B4
:104C2000122F9B7406123019E02405FCA3E0340017
:104C3000FD8C828D83122FEA851082851183122FBD
:104C4000DE8510828511837808122F8C74187808FD
:104C5000122D54851082851183780C122F8C7408C4
:104C6000780C122D54908369780C122EF178087903
:104C70000C122F04851082851183780C122F8C74EE
:104C800008780C122DC790836D780C122EF17808DD
:104C9000790C122F04851082851183780C122F8CC9
:104CA0007418780C122DC77808790C122F0474042C
:104CB000123019124FED122F9B8C828D83780812BF
:104CC0002F8C7A177B001232998A0C8B0DAE0CAFA9
:104CD0000DEE4F60767C177D00790012328D1250F8
:104CE00046600678FF79FF800312548A124E2D1217
:104CF0002F9B908355122C917C047D00EC122DE8A3
:104D00001231FD7404122DAC851082851183122F8F
:104D1000EA8E828F83A3A3A3A3A3A3A3A3A3122F8B
:104D2000DE124E00122E147406123019124FD212D7
:104D300031617402122DAC7917EEFAEFFB1230DDFF
:104D4000EE4F6007EEFAEFFB123293740412301943
:104D5000125774123293124EC890830D122C917C0C
:104D60008F7D307A02124EF4E0F912313174041260
:104D70002DAC806C74086A4B706690048912522EB8
:104D80006054124F65FEA3E0FF8019EEFAEFFB12AC
:104D9000303BEE4F6007EEFAEFFB123293124FCC2E
:104DA000AE08AF09124F1B124F27EE687002EF6971
:104DB00070D9125001123125124EF474FFF0900494
:104DC0008912522E601090048912577412329390F7
:104DD0000489E4F0A3F0900478E064046002E4F055
:104DE000741702507198E499A2D265D03322EE2450
:104DF0000FF582E43FF583E0221254807483F022A1
:104E00001254807403F0750809750900780822F0BF
:104E1000900483E022E8F0A3E9F0741022E8F0A304
:104E2000E9F0740422E8F0A3E9F07408228E828F7E
:104E300083A3A3A3E8F0A3E912576C780822900497
:104E400089E02404FCA3E03400FD22124E4F22121C
:104E50005026C8221250E622E02409124F312212B5
:104E60004F31740422E02408124F3122124E71A3F4
:104E700022E0FCA3E0F5838C8222E02406124F316D
:104E80007408229004871250F314F022124E9022DC
:104E90001250E3A322124F8CA3221250DFE4F0A39E
:104EA000F022124EA622125026C82409F582E438B8
:104EB000F58322124E4F240AF582E438F58322123C
:104EC0004EC322124F90E022900489124EC304F088
:104ED0002212501922124E4F240EF582E438F58327
:104EE000E022124E4F2406F582E438F583E02212C8
:104EF0004EA6E022900489124E4F124EFE22240844
:104F0000F582E438F58322900491124F0E2212505C
:104F100026C8124EFEE022AE08AF098E828F83E0D3
:104F2000F508A3E0F50922900489E02404124F312A
:104F300022F8A3E03400F922124F3188828983E0FD
:104F400022EE240AF508E43FF509850882F583E09E
:104F5000FAA3E0FBEA4B22124E90E05407F87401EA
:104F6000682290048A124F93A3A3E022124F70226A
:104F7000900489124FC0E022124F7024FFF8E434ED
:104F8000FFF922900489124F8CE4F022124F9022F4
:104F9000E0F8A3E0F5838882A3A322900487E024AD
:104FA00001124F31221250F3FEA3E0FF8E828F8355
:104FB000E0FCA3E0FD22124FBA22124FC0A3A322AD
:104FC000E0F8A3E0F5838882A3A3A322124F701414
:104FD000F022E0FCA3E0FDEE240EFAE43FFB2212F7
:104FE00050F3F8A3E0F9221250DF780822124FBAEA
:104FF00078082212502B8E828F83A3A3A3A3A3A38E
:1050000022900489124F0EF92212502BEE2406F53D
:1050100082E43FF58312501922125026F9888289C2
:1050200083E582458322E0F8A3E022900491E0FE2C
:10503000A3E0FF9004911250E3125026F9900491DE
:10504000E8F0A3E9F0221252ED12506474031250FA
:10505000641250641250647443F01251E690047864
:10506000E064042212506822F08E828F83A322749F
:105070000D122DAC7F08022C137902022D79C0820B
:10508000C08374FC122E27908355122C917C047DD2
:1050900000EC122DE81231FD7404122DAC85108243
:1050A000851183122FD27404122DAC80077B0079F6
:1050B00001123143D083D082022D79F98E828F8301
:1050C000E8F0A3E9F022EAF0A3EBF022E9F0851082
:1050D0008285118322E0FEA3E0FF221250DF22121C
:1050E00050E322E0F8A3E0F583888222900487123F
:1050F00050F3221250E3E022125491EE682274F22F
:105100001229A074FC122E278A088B098C0A8D0B99
:105110007412123019E0F50CA3E0F50D850C82F540
:1051200083E4F0A31252027406125202A3A3125097
:10513000D58E828F83A3E054E0F9900483E0F8E9F0
:1051400044011250BB9083617808122E528E828FD8
:1051500083A37005E054DF8003E044201251FC1269
:105160005026543F44401250BB90048112521C12EE
:105170004E31122F9B908355122C917C047D00ECB4
:10518000122DE81231FD7404122DAC8510828511A8
:1051900083122FEA8E828F83A3A3A3A3A3A3A3A327
:1051A000A3122FDE1251E690049112522E90049118
:1051B00060161252178003E8FAE9FB8A828B831289
:1051C000522E70F38A828B83E50CF0A3E50DF07A02
:1051D000017B0079011231437A007B007404122DA7
:1051E000AC7F06022C131251EA2290048DE08E82CD
:1051F0008F83A3A3F090048DE004F022F08E828FC1
:105200008322F0850C82850D83A3A3A3A3A3A3A36C
:10521000A322FF8E828F83E0FAA3E0221254918EA4
:10522000828F8322A2AFE433FEC2AF900493125464
:1052300091E8492274F61229A074FC122E277A0EE6
:105240007B001232998A088B09AE08AF09EE4F70C5
:10525000067AFB7BFF80697C0E7D00790012328D1F
:105260001252C58E828F83A3A3A3A3A3F0A3F0A39E
:10527000F0A3F0908355122C917C047D00EC122D4C
:10528000E81231FD7404122DAC8510828511831251
:105290002FEA8E828F83A3A3A3A3A3A3A3A3A31206
:1052A0002FDE12547C7401F0790EEEFAEFFB12300F
:1052B000DDEE4F6007EEFAEFFB1232937A007B00CF
:1052C00074040234221252C9221252ED1250687430
:1052D000031250681250681250687443F01251EA79
:1052E0008E828F83A3A3A374FFF0A3F0228E828FFC
:1052F00083E4F0A3F0900483E08E828F83F0A3E434
:105300002274F01229A074FA122E278A088B098CB5
:105310000A8D0B7A177B001232998A0C8B0DAE0C1A
:10532000AF0DEE4F70077AFB7BFF0254777C177D41
:1053300000790012328D1254B4122F9B90835512B3
:105340002C917C047D007406122DE81231FD74044A
:10535000122DAC7402123019122FEA8E828F83A3A1
:10536000A3A3A3A3A3A3A3A3122FDE12547C74812F
:10537000F0EE240EF8E43FF9851082851183E8F001
:10538000A31250CC1250DB7402F0900478E0640455
:10539000701090047D122FEA7402123019122FDE61
:1053A000800E740212301974FFF0A3F0A3F0A3F082
:1053B00074021230197808122F8C74187808122D84
:1053C000547402123019780C122F8C7408780C1255
:1053D0002D54908369780C122EF17808790C122FD5
:1053E000047402123019780C122F8C7408780C1285
:1053F0002DC790836D780C122EF17808790C122F3E
:10540000047402123019780C122F8C7418780C1254
:105410002DC77808790C122F04851082851183120C
:105420005496122F9B12548AE8FBE9F8EBF9851089
:105430008285118312549CA3A31250C0900484E06F
:10544000C0E08510828511831254A8D0E0F012507C
:10545000ECC0E0851082851183124EF7D0E0F07920
:1054600017EEFAEFFB1230DDEE4F6007EEFAEFFBBE
:105470001232937A007B007406025071125480221B
:10548000EE240DF582E43FF58322900481125491BD
:1054900022125026F922124E90780822E0FAA3E058
:1054A000F5838A82A3A3A322124E4F2407F582E438
:1054B00038F583221252C98E828F83A3A3A3A3A39C
:1054C00078082274F11229A074FC122E27890E8A02
:1054D000088B098C0A8D0B7A0F7B001232998A0C8B
:1054E0008B0DAE0CAF0DEE4F70067AFB7BFF806A22
:1054F0007C0F7D00790012328D1254B4122F9B90D4
:105500008355122C917C047D00EC122DE81231FDA4
:105510007404122DAC851082851183122FEA8E82BD
:105520008F83A3A3A3A3A3A3A3A3A3122FDE125429
:105530007CE50EF07413123019E0C0E0125564D00F
:10554000E0F0790FEEFAEFFB1230DDEE4F6007EE80
:10555000FAEFFB1232937A007B007404122DAC7FB9
:1055600007022C13EE240EF582E43FF58322C0825D
:10557000C0839004961250C60250B474F01229A051
:1055800074F8122E277901AA10AB111231918510EF
:1055900082851183E0C2E7F0C3941240099004951C
:1055A000E0C3940540030257637A0A7B00123299E4
:1055B0008A088B09AE08AF09EE4F70030257638566
:1055C0001082851183E024FE8E828F83A3A3A3A380
:1055D000A3A3A31251FCE4F0A3F0123269EAF8EBA2
:1055E000F9ECFAEDFB8E828F83A3A3122FDE8E825D
:1055F0008F83A3A3A3A3A3A3A3E0FA7B00123299F2
:1056000074011230191250C6740112301912522E40
:1056100070030257098E828F83A3A3A3A3A3A3A31E
:10562000A3E8F0A3E9125768A3A3E0F974011230CC
:10563000191257741231917901EE2406FAE43FFBF6
:1056400012319179017403122DE812319174031211
:105650003019E0A2E740030256FE8E828F83A3A397
:10566000A3A3A3A3A3E024FCF508E434FFF5097881
:1056700008122E14740312301912577F7A007B001F
:105680001232277402122DAC8A088B09E4F50AF550
:105690000B8A0C8B0DF50EF50F7418780C122D5427
:1056A00074087808122D549083697808122EF178C6
:1056B0000C7908122F047404123019780C122F9BE5
:1056C0007508047509007808122E148E828F83A342
:1056D000A3A3A3A3A3A3E0F87403123019E0281234
:1056E0004F31E824FCFCE934FFFD7406122DE8126A
:1056F000315B7402122DAC8B09EA45096014740108
:10570000123019125774123293EEFAEFFB123293E1
:1057100080518E828F83A3A3A3A3A3A3A3E024FC21
:10572000F01231A98E828F83A3A3A3A3A3A3E029A0
:10573000F012522B90049360161252178003E8FA6D
:10574000E9FB8A828B8312522E70F38A828B83EE5E
:10575000F0A3EFF0900495E004F07A027B00790169
:10576000123143740802507112576C22125068A310
:10577000A3A3A322E0FAA3E0FB22FB8A828B83E0AF
:10578000FCA3E0FD2274F01229A074F3122E2774FA
:1057900001123019E9F0EAFEEBFF7404123019E44B
:1057A0001250CD7406F07401123019E0F508750935
:1057B000002404FAE43400FB123299740212301906
:1057C0001250C6740212301912522E70030259146C
:1057D0007808122E14EEFCEFFD74041230191257E3
:1057E000741231617402122DAC7808122E14EEFC82
:1057F000EFFD7A007B001232277402122DAC8A086A
:105800008B09E4F50AF50B8A0C8B0DF50EF50F7478
:1058100018780C122D5474087808122D549083694E
:105820007808122EF1780C7908122F0474051230C2
:1058300019780C122F9B7508047509007808122E30
:10584000147407122DF07403123019E0F874041266
:105850003019E028FAA3E03400FB1231617402121F
:105860002DAC1232751230D77401123019E02404B5
:10587000F974021230191257741231971232B77438
:10588000021230191257741232931231C1E9FA75AB
:105890000801750900851082851183E07808122FB0
:1058A00017E50824FFF8E50934FFEA58F508E4F5A0
:1058B000093395E0F50A047808122D541232697400
:1058C00009123019122FC61232698A0C8B0D8C0EF8
:1058D0008D0F7409123019780C122DF87808790C94
:1058E000122F5D40E212318BE970067A007B008056
:1058F000277404123019E0041250CDE004F0C39470
:105900000A40037409F07404123019E0C394035080
:105910000302588A7AFF7BFF02506FC082C0831255
:1059200030D77A007B001232E11232B70250B474E1
:10593000F01229A074FD122E277402123019E9F01A
:105940008A088B098C0A8D0B7415123019E0FEA39E
:10595000E0FF851082851183E4F0A3F08E828F83AF
:10596000A3AA82AB839016FC780C122F8C7808794E
:105970000C122CC270118E828F837469125E1774A0
:105980006EF0A37466801878087908122CC260182B
:105990008E828F83746E125E177461F0A3746EF042
:1059A000A30A0AAB83025DB6901700780C122F8C05
:1059B0007808790C122B785003025A5C9083257872
:1059C0000C122F8C7808790C122CC26003025AB08A
:1059D0007417123019E07003025AF2851082851193
:1059E00083C082C0837413123019126855D083D0DB
:1059F00082125DF0502F851082851183C3E094FCE4
:105A0000A3E094FFA2D265D033401A740212301979
:105A1000E4126953F8A3E0F97413123019C3E09843
:105A2000F0A3E099F07413123019125E0D7418127D
:105A30003019E07003025AEF7417123019E4025A59
:105A4000F1901704780C122F8C7808790C1223230C
:105A5000851082851183E0240A12697990170878ED
:105A60000C122F8C7808790C122B7840D490170CDC
:105A7000780C122F8C7808790C122B78400302597D
:105A8000D090170C780C122F8C7808790C122323E5
:105A900012697080D8901704780C122F8C780879CE
:105AA0000C122509851082851183E024F6125E1000
:105AB000901710780C122F8C7808790C122BC74095
:105AC000D4901700780C122F8C7808790C122BC701
:105AD00040030259D090170C780C122F8C7808795B
:105AE0000C122509851082851183125E0D80D274F7
:105AF00001F07402123019E060047A00807F125DB8
:105B0000FC507E8E828F837430F0EAFEEBFF7413BC
:105B1000123019E0FCA3E0FDEC4D7008741812304F
:105B200019E0600B8E828F83742EF0A30EAF837A00
:105B3000007B0080118E828F837430125E38741364
:105B4000123019125E0DEA24FF1AEB34FFFB8510A8
:105B500082851183125DE4500B74131230191268A0
:105B60005F4970D185108285118374FFC39CF874DE
:105B7000FF9DF9125DF05003025CCE7A017B00803C
:105B80007A851082851183126855C3E498FAE499E6
:105B9000FB806885080C85090D850A0E850B0F783A
:105BA0000C122694AC0CE50D3395E0F50EF50F784C
:105BB0000C1228B97808790C1220E490170C780C94
:105BC000122F8C7808790C122509EC125E32EAF853
:105BD000EBF9E824010AE439FBE849701E7413125A
:105BE000301912685F4970087418123019E0600BA0
:105BF0008E828F83742EF0A30EAF8374131230192C
:105C0000125DE4508E901714780C122F8C7808795E
:105C10000C122B784003025CCE7C01EE24FFF8EFDF
:105C200034FFF97415123019E0F508A3E0F509887E
:105C3000828983E0642E6010E02CF0643A7007746F
:105C400030F07C0180027C00E8FAE9FBEA24FF18CE
:105C5000EB34FFF9C3E5089AE5099B40D2ECA2E0DA
:105C6000506C7402123019E0603BEEF8EF800DECDE
:105C700088828983F0E824FF18E934FFF9C3E50836
:105C800098E50999501A125DC0E0FC742E6C70DF23
:105C9000E824FEF582E934FFF583125DCDF980D565
:105CA000126970801E8E828F83A3AE82AF83EEF85E
:105CB000EF8006125DC0125DCDF9C3E50898E509D5
:105CC0009940F0741512301912687A7431F0741713
:105CD000123019E07005801C1EAF83EE24FFF582A0
:105CE000EF34FFF583E0F874306860EC742E687070
:105CF000031EAF837402123019E07003025DB2120A
:105D00005E34A3A983125DFC8E828F835014742DA0
:105D1000F00EE9FF8510828511831268A0125E25BE
:105D20008006742BF00EE9FF7C007D00EE240AFE55
:105D300050010F0CEC70010D125DD612275CEA12B7
:105D40005E32125DD612275C851082851183E8F0E1
:105D5000A3E91269534970DBC3EC9402ED126806A3
:105D600040D1ECFAEDFBC3E49CF8E49DF9EE28F594
:105D700082EF39F583E0C0E0C3E49AF8E49BF9EEE2
:105D800028F8EF39F9E82CF8E93DF9E824F5F5822F
:105D9000E934FFF583D0E0F0EC24FF1CED34FFFD87
:105DA000C3EC9401ED12680650BCEE24F6FEEF340D
:105DB000FFFFEEFAEFFB7403122DAC7F08022C13E9
:105DC000E824FFFAE934FFFB8A828B8322E0888291
:105DD0008983F018EB228510828511831268597A25
:105DE0000A7B0022C3E09AA3E09BA2D265D03322B3
:105DF000C3E098A3E099A2D265D0332285108285B2
:105E00001183C3A3E09400A2D265D03322E024FF23
:105E1000F0A3E034FFF022F0EAFEEBFF8E828F83E6
:105E200022A3E03400F9851082851183E8F0A3E90C
:105E3000F02224308E828F83F0A3AE82AF8322744F
:105E4000F01229A074AE122E2785108285118312BC
:105E500069197417123019ECF0A3EDF0740F1230B9
:105E600019E4F0A3801B746212301912684574178C
:105E700012301912687A1232EC740F12301912684B
:105E80000EF012688EF9851082851183E02401FAE4
:105E9000A3E03400FB8510828511831269197425F3
:105EA000696010E970C0740F12301912684574529D
:105EB000025DB812688E6425701985108285118381
:105EC000E0240108125E21746212301912684579CB
:105ED00025809B740E123019E4F0740D123019E411
:105EE000F0740C123019E4F07405123019E4F074F7
:105EF00020122DE07402123019125E2C741E123022
:105F00001974C7F0A3741680197405123019E07063
:105F1000077405123019EAF0851082851183E8F0C4
:105F2000A3E912695312683C1268B7FA24E060D9F9
:105F300024FD601724F860D924FE600624FD600F5C
:105F40008011740C123019E00480CC740D80F5744B
:105F50000E80F11268B7642A705C746412301912F2
:105F600068BDFAA3E0FB8A828B83E0FCA3E0FD74AA
:105F70000A123019ECF0A3EDF0EA2402FA50010BFA
:105F80007464123019126911740A123019125E0207
:105F9000501F740A123019126845C3E49AFAE49B40
:105FA000FB740A123019126919740C123019E004CA
:105FB000F0125E268045740A123019E4F0A3802D99
:105FC000740A12301912685F75F00AA4F8AAF07505
:105FD000F00AE9A42AF9E82508F8E439F9E824D018
:105FE000F8E934FFF9740A123019126980126960F5
:105FF000F50874D02508C3940A40C5740C123019F2
:10600000E06007740E123019E4F012688E642E708E
:10601000771268DBE8F0A3E9126960642A702674DD
:10602000641230191268C288828983E0FEA3E0FFFF
:10603000E82402F850010974641230191268AA1297
:106040006980F080477E007F008510828511831271
:10605000689974D02508C3940A5031EE75F00AA4EB
:10606000FEA8F075F00AEFA428FFEE2508F8E43F3B
:10607000F9E824D0FEE934FFFF851082851183E022
:106080002401F8125E2180C17EFF7FFF7A00851017
:1060900082851183126837851082851183E0FBA306
:1060A000E0F5838B82E024B4600824E4600524FCDE
:1060B00070040A125E2612688EFB1268DB12692FCA
:1060C000123019EBF070030266AC24BB700302655A
:1060D0007524FE700302655724EF70030262AC243E
:1060E000F570030261A2147003026353147003027B
:1060F000657514700302657314700302655724FEFE
:10610000700302635324FB60241470030262901432
:1061100070030262AC24FD70030261D924FE700397
:106120000262AC24FD70030262A00266B8746412BD
:1061300030191268FF1230191269271230191268CB
:10614000C2E8FCE9FD7406123019E02402F508A348
:10615000E03400F509EAA2E0740F502F1230191252
:1061600068553395E0FA8C828D83E8FCE9FDEAFE00
:10617000ECF0A3EDF0A3EEF0A3F07464123019126A
:10618000687AE508F0A3E509025E81123019126809
:10619000558C828D83125E2C74641230191268AA99
:1061A00080E07464123019126894126895C0E0742B
:1061B00020123019D0E0F0746412301912687A128B
:1061C00068CF1230191268AA125E2C74211230198D
:1061D000A882A9837411026286746412301912684D
:1061E000FF1230191269271230191268FF12301984
:1061F000E02402FAA3E03400FB746412301912693F
:10620000117402123019125E2CE849700C740212DB
:10621000301974D8F0A37416F012680450047E107C
:106220007F277408123019E4F0A380087408123034
:106230001912680EF074021230191268558882899A
:1062400083A3AA82AB83740212301912691988825F
:106250008983E0600A740812301912686440CD74B2
:10626000021230191268257411123019125E2C7442
:10627000081230191268A0F97411123019E028F8C8
:10628000A3E039F97402123019E8F0A3E90266CFED
:10629000740D123019E06008EE4F70047E017F002B
:1062A000741E12301974E7F0A37416F0746412307F
:1062B000191268FF12301912692F123019E0647038
:1062C000703274061230191268F5123019126937DB
:1062D0001230191268CF1230191268AA125E2C748B
:1062E0001A1230197410126941A3F0740512301992
:1062F000E40263DDEAA2E07406501B123019126852
:106300007A122FEA7413123019122FDE740612302B
:1063100019E0240480121230191268F51230191293
:106320006937123019E024021268D212301912684B
:10633000AA12692F123019E0646F7009741A1230B2
:1063400019740880A1E064757095741A123019747C
:106350000A809374641230191268FF123019125EA9
:106360002CEAA2E07406501512301912687A7808E7
:10637000122F8C7406123019E0240480191230197F
:10638000126899A3E0F5093395E0F50AF50B740658
:10639000123019E024021268D21230191269481220
:1063A00030197808122F9B9083257808122CEE4024
:1063B000217405123019742DF074131230197808F5
:1063C000122F8C7808122EBA741312301978081212
:1063D0002F9B741A123019740A126941A3F0745178
:1063E000123019A882A9837402123019125E2C741B
:1063F0001112301912694B123019122FEAE8494A6A
:106400004B600A74191230197401F0800E7419125D
:106410003019E4F0EE4F70030264C77402123019B1
:1064200012687412301912694B123019780C122F3D
:106430008C741A1230197808122F8C780C79081283
:106440002931741E123019E02508F8A3E0350988B7
:1064500082F583E0C0E0740212301912687AD0E04D
:10646000F07413123019780C122F8C741A12301920
:106470007808122F8C780C79081229317413123095
:1064800019780C122F9B7413123019122FEAE84955
:106490004A4B7087126804502E740E123019E06057
:1064A000267405123019E06004D2F08002C2F07444
:1064B0000A123019126817800E740212301912690C
:1064C0001F1230191268877402123019126825746D
:1064D00051123019C082C0837402123019126845FB
:1064E000D083D082E582C39AFAE5839BFBC3EA9E00
:1064F000EB12686D40C3740D123019E07003026630
:10650000D07419123019E0A2E040030266D074047E
:10651000123019E064786005E064587010E08882F9
:106520008983F0E824FF18E934FFF98017E0646FED
:1065300060030266D074021230191268BD643070B4
:10654000030266D0740212301912691F1230191238
:10655000687A74300266CF74081230197401F0A39F
:10656000E4F07404123019E024FEF0EE4F700F7E58
:10657000018012E4F07408123019E4F0A3F01268FC
:106580000450047E067F0074641230191268FF12F2
:10659000301912692712301912687A780C122F8C70
:1065A0007406123019E024041268D21230191269EC
:1065B00048123019780C122F9B9083257808122FDF
:1065C0008C780C7908122BC750227405123019747C
:1065D0002DF074131230197808122F8CE50BB2E7E6
:1065E000F50B74131230197808122F9B740A1230AD
:1065F000197420122DE08909E028F8A3E03509F983
:106600007402123019125E2C740D123019E0F50864
:106610007808122E187409123019E0F5087808125B
:106620002E187404123019122C958E088F097808D0
:10663000122E14740A123019E0F97419123019125A
:106640002FD212314F7406122DAC74111230191260
:106650006919740E123019E060767405123019E071
:106660006004D2F08002C2F0740A12301912681766
:106670007411123019C082C083740212301912686A
:1066800055D083D082E0C398F8A3E099F9C3E89E7F
:10669000E912686D503A740212301912687412309F
:1066A0001912691F12301912688780C485108285FB
:1066B000118312682E125E25740212301974F8F0DC
:1066C000A37416F0741112301974FBF0A37416F051
:1066D0007411123019C082C083740212301912680A
:1066E00055D083D082E0C398FEA3E099FF740A12CC
:1066F0003019126864500A7408123019E4F0A3804B
:10670000307405123019E06004D2F08002C2F074D7
:106710000A123019E0C39EF8A3E09FF9A2F0E43317
:10672000FAE89AF8E99400F97408123019E8F0A32D
:10673000E9F0740C123019E0702B80197462123079
:106740001912684B12301912687A1232EC740F1257
:10675000301912697674081230191269051230194D
:10676000125E0250D77405123019E0605074621244
:1067700030191268457405123019E0F97417123097
:106780001912687A1232EC802C7462123019126875
:10679000457402123019126894F9741712301912E4
:1067A000687A1232EC7402123019126837740212CD
:1067B0003019125E2C740F123019126976EE24FF14
:1067C0001EEF34FFFFC312680650BE740C1230195E
:1067D000E07003025E8274081230191269051230EB
:1067E00019125E025003025E82746212301912683E
:1067F0004B12301912687A1232EC740F12301912DF
:10680000697680D2C3EF9400A2D265D03322E0240F
:1068100001F0A3E0340022A2F0E433F8E098FEA3F4
:10682000E09400FF221268292212682EF922E02447
:10683000FFF8A3E034FF22E012683C222401F8A311
:10684000E03400F922E0FAA3E0FB22E0FAA3E0FB47
:10685000792074172212685922E0F8A3E0F9221275
:106860006859E822C3E09EA3E012686D229FA2D27D
:1068700065D0332212682974022212687E22E0F861
:10688000A3E0F58388822212687E7430F02285109E
:1068900082851183E01269672212687EE0F5082282
:1068A000126859C3E498F8E499221268AE22E0FA1B
:1068B000A3E0F5838A82228510828511831268AE57
:1068C000E0221268C622E0126967F8A3E0F922E02C
:1068D0002402F8A3E03400F9746422851082851143
:1068E00083E02401081268E922A3E03400F985104E
:1068F00082851183221268C6E8FAE9FB741322121A
:1069000068C6740622E024FFF0A3E034FFF07408A8
:1069100022E0FCA3E0F5838C82EAF0A3EBF022E80E
:10692000F0A3E9F0740222E8F0A3E9F0740622E88B
:10693000F0A3E9F0740422EAF0A3EB1269417406B3
:1069400022F0A3E4F0A3F0221268AEE8F0A3E9F08D
:1069500074132212695722F0851082851183E02278
:1069600012695712696722F8A3E0F5838882E02252
:10697000851082851183E02401F0A3E03400F02229
:10698000E8F0A3E91269572401F81268E9E8F0A3D6
:10699000E92274F61229A012309590053EE4F0A386
:1069A000F0900540F0A3F090053BF0A3F090053D7A
:1069B000F0900542F0A3F01231C1E9900499F090F3
:1069C000053AE4F07508A0F5097808122E147CFF4A
:1069D0007D007A9A7B041231677402122DAC75081F
:1069E000007509017808122E147CFF7D007A447B23
:1069F000051231677402122DAC7AFB7B301230D154
:106A00007A007B007F02022C1374F01229A08A0AFC
:106A10008B0BECFEEDFF890E9005401270BB7005EC
:106A20007900026B3290054012701190054012708F
:106A30003D850882850983E4F0A3F0E5082408F584
:106A40000CE43509F50D850C82F583E0FCA3E0FD2F
:106A5000EA450B6015EC2412F582E43DF583122F14
:106A6000EA850A82850B83122FDE74121230191206
:106A700070BB6012850882850983A3A3A3A3A3A387
:106A8000E088828983F074101230191270BB60198B
:106A90007A188C828D83E088828983126B34888295
:106AA0008983A3A882A983DAE9850882850983A35B
:106AB000A3A3A3A3A3A3E024E8F50AE50EC3950AC4
:106AC0005003850E0A850C82850D83E02418FCA3F3
:106AD000E03400FDE50A601DF50B8C828D83E08EAD
:106AE000828F83126B348E828F83A3AE82AF831525
:106AF0000BE50B70E5850C82850D83126FF5600D3B
:106B0000123293850C82850D83E4F0A3F0AA08ABC2
:106B1000091232939005401270BB60149005421226
:106B200070BB600C7A007B00E0F58388821232EC47
:106B3000A90A800EF08C828D83A3AC82AD832212D1
:106B40002DAC7F08022C1374F01229A074F9122EB8
:106B50002774016A7001EB605174026A4B60030292
:106B60006FC47402123019E4F090053E1270BB60DD
:106B700003026C60026FC412701190053B12703DED
:106B8000E508240AFEE43509FF8E828F83126FF533
:106B9000600B1232938E828F83E4F0A3F0AA08ABCD
:106BA0000912329390053DE014F090053B1270BB42
:106BB0007003026FC490053BE02408F508A3E0349D
:106BC00000F509850882F583E090053B60A9E02483
:106BD0000A126FC9127003E8FAE9FB908361780C1E
:106BE000122F8C8A828B83A3A3A3A3A3780C122ECB
:106BF00052700E750CFF750DFF750EFF750FFF803F
:106C000017EA240EF582E43BF583122FD2123101EC
:106C10008A0C8B0D8C0E8D0F90053B127026FEA3F7
:106C2000E0FF850882850983E014F090053B122C73
:106C300095AA0CAB0DAC0EAD0F1230B97402122D2B
:106C4000AC8B09EA4509701390053BEEF0A3EFF019
:106C500090053B1270BB7003026FC47A01026FBDD6
:106C60001230B390053E12700712703D90053E122F
:106C70007026F8A3E0F990053E127043F5838882F0
:106C8000E4F0A31270302407F8A3E03400F974058F
:106C900012301912703D7405123019127026C39407
:106CA000185003026F8B851082851183E0F8A3E0F2
:106CB000C82408F582E438F5831270037403123097
:106CC0001912703D7403123019E0240D126FC9A31C
:106CD000A3A3A3A37808122F8C9083617808122EA7
:106CE000527003026F8B8A0C8B0D750E00750F00AE
:106CF0007808790C122E3D7003026F8B7A9A7B0410
:106D000079208E828F83A3A3A3A3A3A3A3A3A3A36A
:106D1000E0FC8A828B837808122E52700F8A828B55
:106D200083A3A3A3A3E06C7003026F8BEA2405FA8C
:106D300050010B19E970DB90053AE075F005A4F8F5
:106D4000A9F0749A28FC740439FD8E828F83A3A362
:106D5000A3A3A3A3A3A3A3A3126FDF12730C122FE9
:106D6000EA8C828D83122FDE90053AE004F06420D5
:106D70007002E4F08E828F83A3A3A3A3A3A3A3A393
:106D8000A3E0540F60108E828F83A3A3A3A3A3A3B9
:106D9000A3A3A3E014F08E828F83E0540360030268
:106DA0006F8BA37808122F8C9083617808122E5273
:106DB00060097808790C122E3D70469005401270DB
:106DC000BB7008126FFD9005408017900540126F50
:106DD000DA8003E8FAE91270B670F8126FFD8A8261
:106DE0008B8312703D9005421270BB60147A007B59
:106DF00000E0F58388821232EC74021230197401BB
:106E0000F01230ADE964026003026F818E828F83DD
:106E1000A3780C122E527003026F818E828F83A38F
:106E2000A3A3A3A3A3A3A3A3E0540F7003026F81A2
:106E300090053DE0C3940A4003026F817A0C7B0009
:106E40001232998A088B09AE08AF09EE4F7003021F
:106E50006F811270601232698A088B098C0A8D0B5F
:106E6000C008C009C00AC00B1231AFEAF8EBF97ACA
:106E7000327B001227648A0C8B0D7402780C122F5F
:106E8000179083757808122F8C780C79081227BD1B
:106E9000D00BD00AD009D0087808790C122EDE8EDB
:106EA000828F83A3A37808122F9B8E828F83A3A344
:106EB000A3A3A3A3A3A37403F07405123019127043
:106EC00026F50CEE2409F50AE43FF50B850A82F558
:106ED00083E50CF01272EB7402123019E0A2E0505C
:106EE0004FAA0C7B00123299850882850983EAF04B
:106EF000A3EB1272F5F9E8497009EEFAEFFB1232D2
:106F000093807E7B00850A82850B83E0F8EBC39833
:106F1000504D8B82A8827403123019126FE9E0C0C1
:106F2000E0850882850983126FE9D0E0F00B80D5F7
:106F30007403123019127003850882850983127058
:106F400043F9E8496011126FD4FB12329385108225
:106F5000851183E4F0A3F074021230197401F090EB
:106F6000053B1270BB90053B6011126FDA8003E89D
:106F7000FAE91270B670F88A828B8312704E123161
:106F8000437402123019E0A2E04028851082851176
:106F9000831270BB6007126FD4FB1232937403121A
:106FA00030191270BB600C7403123019126FDAFBC7
:106FB00012329390053E1270BB60097A027B007911
:106FC000021231437407026B3FFEA3E03400FF8ED0
:106FD000828F8322851082851183E0FAA3E022E06C
:106FE0008C828D83A3A3A3A322E028FAA3E034001C
:106FF0008A82F58322E0FAA3E0FBEA4B2285108225
:1070000085118312702022127020851082851183D1
:1070100022E0F508A3E0F509F583888212702022AA
:10702000E0F8A3E0F922E0F8A3E0F5838882E0220B
:1070300012703422F0851082851183E022E8F0A3DB
:10704000E9F022E8F0A3E9127034F8A3E022EEF0B0
:10705000A3EFF090053DE004F07A017B0079022275
:107060008E828F83E4F0A31273077413F0A374313C
:10707000F022D083D082022D79C082C08390053E59
:107080001270BB90053E6017E0FCA3E08003E8FCB3
:10709000E9FD8C828D831270BB70F38C828D83EA44
:1070A000F0A3EBF08A828B83E4F0A3F07A02FB7901
:1070B0000212314380BCFB8A828B83127020E84924
:1070C0002274F01229A08A088B098C0A8D0B750C8A
:1070D000FF750DFF750EFF750FFF90836178081225
:1070E0002E52700A7AFF7BFF7CFF7DFF803A7A0088
:1070F0007B007C447D058C828D837808122E527033
:10710000158A088B0974037808122F171271EC780E
:107110000C122F8C800A0AEA70010B1271F940D60A
:10712000AA0CAB0DAC0EAD0F026B4274F01229A08D
:107130008A0C8B0D8C0E8D0F7A007B007C447D05B4
:107140008C828D837808122F8C9083617808122EA0
:107150005260217808790C122E3D7018741012308C
:1071600019122FF68A088B0974037808122F171248
:1071700071EC806F0AEA70010BEC2408FC50010DE1
:1071800012720840BB7A007B007C447D05908361CD
:107190007808122F8C8C828D837808122E52601101
:1071A0000AEA70010B1271F940E37AFB7BFF026B74
:1071B000428A088B0974037808122F177444250833
:1071C000F874053509F9E8FAE9FB8A828B83780CB3
:1071D000122F9B7410123019122FF68A828B83A300
:1071E000A3A3A31230027A007B0080C27448250852
:1071F000F58274053509F58322EC2408F8E43DF99D
:10720000E8FCE9FD12720822C3EA9420EB9400A284
:10721000D265D0332274F01229A08A088B098C0A17
:107220008D0B7A447B05908361780C122F8C8A82B7
:107230008B83780C122E52601C8A828B83A3A3A3AB
:10724000A37808122E52700D8A828B8374FFF0A3EC
:10725000F0A3F0A3F0EA2408FA50010B6444700391
:10726000EB640670C1026B4274F51229A0EAFEEBD2
:10727000FF1272EBE9602B850882850983126FF596
:10728000600D123293850882850983E4F0A3F0EE45
:107290004F6007EEFAEFFB12329390053DE014F0D9
:1072A00080448E828F83E4F0A31273017403127200
:1072B000F5F5838882A3A3A3A3A374FFF0A3F0A38F
:1072C000F0A31273176011126FDA8003E8FAE91263
:1072D00070B670F88A828B83EEF0A3EFF07A017BB0
:1072E0000079021231437F03022C13EE240AF508C1
:1072F000E43FF50922F0850882850983E0F8A3E0E0
:1073000022127307A3A32212730CA322F08E828F82
:1073100083A3A3A3A3A322F090053B127020E84906
:1073200090053B2274F01229A074FE122E279004BF
:1073300045E060030273BC53F3FED28043FD0112AB
:1073400032698A088B098C0A8D0B9082F5780812B5
:107350002ECB9003857808122F9B1232698A088BF6
:10736000098C0A8D0B9082F9C082900385780C12EB
:107370002F8C780C7908122E8F758382D082780C2E
:10738000122D3550D553F3FEC28043FD01900445C4
:10739000E004F090038BE4F0900389F0A3F0123244
:1073A000698A088B098C0A8D0B9082FD7808122E51
:1073B000CB9003857808122F9B0275266401600329
:1073C0000275261232698A088B098C0A8D0B90820D
:1073D000F9C082900385780C122F8C780C790812F2
:1073E0002E8F758382D082780C122D354003027562
:1073F00026127529740028F874801278A5122C9131
:1074000088828983A3A3122C95127C6012305F744A
:1074100006122DAC8B09A909EA4960030274CE90CB
:10742000038BE06407701475080F75090078081263
:107430002E141275357A527B048017E06409701C93
:107440007508147509007808122E141275357A61C2
:107450007B041231617402122DAC805DE0640C700B
:107460002A7508027509007808122E141278FC1289
:107470002DE81231617402122DAC851082851183C2
:10748000E064017002A3E06030807AE0640E60295D
:10749000E0640F70247508027509007808122E1434
:1074A0001278FC122DE81231617402122DAC851095
:1074B00082851183E0900475F090038B1278B99067
:1074C000038BE064147059900445E0048034C3E9F0
:1074D0001278B15051900389127C37900389C08291
:1074E000127529740828F582748039F583E0F875DF
:1074F0008303D082C3E098A3E01278B140079004E0
:1075000045E4F0801B1232698A088B098C0A8D0BC6
:107510009083017808122ECB9003857808122F9B58
:10752000127C6912306502798A90038BE075F0094C
:10753000A4F8A9F02212753922900446127981A389
:10754000A3A3A3A3E0FCA3E0FD2274F01229A0747E
:10755000FE122E271232698A088B098C0A8D0B9035
:107560000385780C122F8C780C7908122E8F758376
:10757000827582F9780C122D35400302785B9003F6
:107580008CE064037004E4F08006E0600302765748
:107590001232698A088B098C0A8D0B900385780C4E
:1075A000122F8C780C7908122E8F7583827582F9D0
:1075B000780C122D3590038CE040040402785A7543
:1075C000F009A4F8A9F0743F28F874811278A51284
:1075D0002C9188828983A3A3122C95127C6012308F
:1075E0005F7406122DAC8B09EA45097054750802C8
:1075F0007509007808122E141278FC122DE8123149
:10760000617402122DAC851082851183E09004759F
:10761000F090038CE004F0127C69123065900389CD
:10762000E4F0A3F01232698A088B098C0A8D0B9062
:1076300083057808122ECB9003857808122F9B8043
:1076400016C31278B050101278E54005900445E456
:10765000F0127C6912306590038CE06401600302D3
:10766000781790044CE07003027895900448127CDF
:107670002D851082851183E8F0A3E9F085108285BD
:107680001183E064487004A3E06404600B851082F9
:10769000851183E0FEA3E0FFEE2404F50CE43FF542
:1076A0000D850C82F5831278D8FAE439FB123299F1
:1076B0008A0A8B0B850C82850D831278D8F508E435
:1076C00039F5097808122E147C007D001231677498
:1076D00002122DAC850C82850D83122C957C427D87
:1076E00082AA0AAB0B1231737402122DACAA0AAB38
:1076F0000B12317F78007900E50A2AFCE50B3BFD8F
:1077000012789B80167430250E8C828D83A3F0082E
:10771000E8700109EC2402FC50010D850C82850DF6
:1077200083E0F50EA3E0F50FC3E8950EE9950F5041
:10773000340AEA70010B1278C4C4540FF50EC394D6
:107740000A4004743780027430250E8C828D83F0D9
:107750000AEA70010B1278C4540FF50EC3940A4064
:10776000A4743780A2E50A2AF582E50B3BF5837401
:107770000DF0A3740AF0908309122C917508D4754A
:1077800009827808122E14AC0AAD0B127C691230F3
:107790005F7406122DAC8A088B09E50A450B600759
:1077A000AA0AAB0B123293E5084509600302785E22
:1077B000851082851183127C6C12303B12789B8578
:1077C0000882F583127C6CEA4B600D1232938508B7
:1077D00082850983E4F0A3F0EE4F6007EEFAEFFB39
:1077E00012329390044CE014F0127C69123065124E
:1077F00032698A088B098C0A8D0B90830D780812E8
:107800002ECB74027808122DC79003857808122FAA
:107810009B90038C1278B990038CE06402703C90CA
:10782000830D122C917508D47509827808122E14D4
:107830007CAC7D82127C6912305F7406122DACC361
:10784000EA94011278B0501390038CE004F0127C9B
:1078500069123065900389E4F0A3F002798AC3E5E8
:10786000091278B150B11278E54022851082851155
:1078700083127C6C12303BEE4F6007EEFAEFFB1286
:10788000329390044CE014F0900445E4F0127C69CB
:10789000123065808290038CE480BFEE2406F508E8
:1078A000E43FF5092239F988828983A3A3A3A3229F
:1078B000EB9400A2D265D03322E004F0900389E477
:1078C000F0A3F022850882850983E028F50EA3E065
:1078D00039850E82F583E022127C31E828F8E933FD
:1078E000F9E8241422900389127C3B900389C3E0B9
:1078F0009404A3E09400A2D265D0332212753974A7
:10790000022274F01229A08A0E8B0F8C088D09EACE
:10791000450F6018EC2403FEE43509FFEEFAEFFB97
:107920001232998A0A8B0BEA450B70067A007B00AB
:10793000804D8A828B837402F085080C85090D7452
:1079400008780C122F4DA3E50CF08A828B83A3A339
:10795000E508F07808122E14AC0EAD0FEA2403FAF5
:10796000E4350BFB1231617402122DAC741012302D
:1079700019127981E50AF0A3E50BF0EEFAEFFB802E
:107980000EE0F8A3E0F5838882227402122DAC7F0A
:1079900008022C1374F21229A089088982AE82751C
:1079A0000A00750B82127C57702E900391E4F0A3AD
:1079B000F0900393127C5A601F90038F127C5A60E0
:1079C0001090038F127C6C12329390038FE4F0A31B
:1079D000F0900393E4F0A3F0127C456425700690C8
:1079E000038D127C37127C577003027BE7E50A286F
:1079F000F8E50B39F9E824FFF582E934FFF583E077
:107A000064256003027BE788828983E0FA74646AF4
:107A10006003027B17A3E065086003027AE190032C
:107A20008DE02402F0A3E03400F0900391C3E094D1
:107A300004A3E094005003027C1390038DE0640DD6
:107A40007002A3E06003027ADC7A0D7B00123299A7
:107A50008A0A8B0BAE0AAF0BEE4F6079750A0D7573
:107A60000B00780A122E147C007D0012316774021C
:107A7000122DAC90038F127C2DEE240BF582E43F87
:107A8000F583E8F0A3E9F0127C1D24FDF8E934FF4A
:107A9000F98E828F83A3A3A3A3A3A3A3A3A3E8F038
:107AA000A3E9F07C4D7D04EEFAEFFB123035900433
:107AB00051E004F0900393E4F0A3F090038FF0A35F
:107AC000F0900476127C5A600C7A007B00E0F5831B
:107AD00088821232EC90038DE4F0A3F07F06022C32
